{
  "_format": "hh-sol-artifact-1",
  "contractName": "PokePlace",
  "sourceName": "contracts/PokePlace.sol",
  "abi": [
    {
      "inputs": [],
      "stateMutability": "nonpayable",
      "type": "constructor"
    },
    {
      "anonymous": false,
      "inputs": [
        {
          "indexed": true,
          "internalType": "address",
          "name": "owner",
          "type": "address"
        },
        {
          "indexed": true,
          "internalType": "address",
          "name": "approved",
          "type": "address"
        },
        {
          "indexed": true,
          "internalType": "uint256",
          "name": "tokenId",
          "type": "uint256"
        }
      ],
      "name": "Approval",
      "type": "event"
    },
    {
      "anonymous": false,
      "inputs": [
        {
          "indexed": true,
          "internalType": "address",
          "name": "owner",
          "type": "address"
        },
        {
          "indexed": true,
          "internalType": "address",
          "name": "operator",
          "type": "address"
        },
        {
          "indexed": false,
          "internalType": "bool",
          "name": "approved",
          "type": "bool"
        }
      ],
      "name": "ApprovalForAll",
      "type": "event"
    },
    {
      "anonymous": false,
      "inputs": [
        {
          "indexed": true,
          "internalType": "address",
          "name": "previousOwner",
          "type": "address"
        },
        {
          "indexed": true,
          "internalType": "address",
          "name": "newOwner",
          "type": "address"
        }
      ],
      "name": "OwnershipTransferred",
      "type": "event"
    },
    {
      "anonymous": false,
      "inputs": [
        {
          "indexed": true,
          "internalType": "address",
          "name": "from",
          "type": "address"
        },
        {
          "indexed": true,
          "internalType": "address",
          "name": "to",
          "type": "address"
        },
        {
          "indexed": true,
          "internalType": "uint256",
          "name": "tokenId",
          "type": "uint256"
        }
      ],
      "name": "Transfer",
      "type": "event"
    },
    {
      "inputs": [
        {
          "internalType": "address",
          "name": "to",
          "type": "address"
        },
        {
          "internalType": "uint256",
          "name": "tokenId",
          "type": "uint256"
        }
      ],
      "name": "approve",
      "outputs": [],
      "stateMutability": "nonpayable",
      "type": "function"
    },
    {
      "inputs": [
        {
          "internalType": "address",
          "name": "owner",
          "type": "address"
        }
      ],
      "name": "balanceOf",
      "outputs": [
        {
          "internalType": "uint256",
          "name": "",
          "type": "uint256"
        }
      ],
      "stateMutability": "view",
      "type": "function"
    },
    {
      "inputs": [
        {
          "internalType": "uint256",
          "name": "tokenId",
          "type": "uint256"
        }
      ],
      "name": "burn",
      "outputs": [],
      "stateMutability": "nonpayable",
      "type": "function"
    },
    {
      "inputs": [
        {
          "internalType": "uint256",
          "name": "tokenId",
          "type": "uint256"
        }
      ],
      "name": "buyCard",
      "outputs": [],
      "stateMutability": "payable",
      "type": "function"
    },
    {
      "inputs": [
        {
          "internalType": "uint256",
          "name": "tokenId",
          "type": "uint256"
        }
      ],
      "name": "deleteCard",
      "outputs": [],
      "stateMutability": "nonpayable",
      "type": "function"
    },
    {
      "inputs": [
        {
          "internalType": "uint256",
          "name": "tokenId",
          "type": "uint256"
        }
      ],
      "name": "getApproved",
      "outputs": [
        {
          "internalType": "address",
          "name": "",
          "type": "address"
        }
      ],
      "stateMutability": "view",
      "type": "function"
    },
    {
      "inputs": [],
      "name": "getCards",
      "outputs": [
        {
          "components": [
            {
              "internalType": "uint256",
              "name": "index",
              "type": "uint256"
            },
            {
              "internalType": "address",
              "name": "owner",
              "type": "address"
            },
            {
              "internalType": "uint256",
              "name": "price",
              "type": "uint256"
            },
            {
              "internalType": "bool",
              "name": "onSale",
              "type": "bool"
            }
          ],
          "internalType": "struct PokePlace.Card[]",
          "name": "",
          "type": "tuple[]"
        }
      ],
      "stateMutability": "view",
      "type": "function"
    },
    {
      "inputs": [
        {
          "internalType": "address",
          "name": "owner",
          "type": "address"
        },
        {
          "internalType": "address",
          "name": "operator",
          "type": "address"
        }
      ],
      "name": "isApprovedForAll",
      "outputs": [
        {
          "internalType": "bool",
          "name": "",
          "type": "bool"
        }
      ],
      "stateMutability": "view",
      "type": "function"
    },
    {
      "inputs": [
        {
          "internalType": "string",
          "name": "uri",
          "type": "string"
        },
        {
          "internalType": "uint256",
          "name": "_price",
          "type": "uint256"
        }
      ],
      "name": "mintCard",
      "outputs": [],
      "stateMutability": "nonpayable",
      "type": "function"
    },
    {
      "inputs": [],
      "name": "name",
      "outputs": [
        {
          "internalType": "string",
          "name": "",
          "type": "string"
        }
      ],
      "stateMutability": "view",
      "type": "function"
    },
    {
      "inputs": [],
      "name": "owner",
      "outputs": [
        {
          "internalType": "address",
          "name": "",
          "type": "address"
        }
      ],
      "stateMutability": "view",
      "type": "function"
    },
    {
      "inputs": [
        {
          "internalType": "uint256",
          "name": "tokenId",
          "type": "uint256"
        }
      ],
      "name": "ownerOf",
      "outputs": [
        {
          "internalType": "address",
          "name": "",
          "type": "address"
        }
      ],
      "stateMutability": "view",
      "type": "function"
    },
    {
      "inputs": [],
      "name": "renounceOwnership",
      "outputs": [],
      "stateMutability": "nonpayable",
      "type": "function"
    },
    {
      "inputs": [
        {
          "internalType": "address",
          "name": "from",
          "type": "address"
        },
        {
          "internalType": "address",
          "name": "to",
          "type": "address"
        },
        {
          "internalType": "uint256",
          "name": "tokenId",
          "type": "uint256"
        }
      ],
      "name": "safeTransferFrom",
      "outputs": [],
      "stateMutability": "nonpayable",
      "type": "function"
    },
    {
      "inputs": [
        {
          "internalType": "address",
          "name": "from",
          "type": "address"
        },
        {
          "internalType": "address",
          "name": "to",
          "type": "address"
        },
        {
          "internalType": "uint256",
          "name": "tokenId",
          "type": "uint256"
        },
        {
          "internalType": "bytes",
          "name": "data",
          "type": "bytes"
        }
      ],
      "name": "safeTransferFrom",
      "outputs": [],
      "stateMutability": "nonpayable",
      "type": "function"
    },
    {
      "inputs": [
        {
          "internalType": "uint256",
          "name": "tokenId",
          "type": "uint256"
        },
        {
          "internalType": "uint256",
          "name": "_price",
          "type": "uint256"
        }
      ],
      "name": "sellCard",
      "outputs": [],
      "stateMutability": "nonpayable",
      "type": "function"
    },
    {
      "inputs": [
        {
          "internalType": "address",
          "name": "operator",
          "type": "address"
        },
        {
          "internalType": "bool",
          "name": "approved",
          "type": "bool"
        }
      ],
      "name": "setApprovalForAll",
      "outputs": [],
      "stateMutability": "nonpayable",
      "type": "function"
    },
    {
      "inputs": [
        {
          "internalType": "bytes4",
          "name": "interfaceId",
          "type": "bytes4"
        }
      ],
      "name": "supportsInterface",
      "outputs": [
        {
          "internalType": "bool",
          "name": "",
          "type": "bool"
        }
      ],
      "stateMutability": "view",
      "type": "function"
    },
    {
      "inputs": [],
      "name": "symbol",
      "outputs": [
        {
          "internalType": "string",
          "name": "",
          "type": "string"
        }
      ],
      "stateMutability": "view",
      "type": "function"
    },
    {
      "inputs": [
        {
          "internalType": "uint256",
          "name": "tokenId",
          "type": "uint256"
        }
      ],
      "name": "tokenURI",
      "outputs": [
        {
          "internalType": "string",
          "name": "",
          "type": "string"
        }
      ],
      "stateMutability": "view",
      "type": "function"
    },
    {
      "inputs": [
        {
          "internalType": "address",
          "name": "from",
          "type": "address"
        },
        {
          "internalType": "address",
          "name": "to",
          "type": "address"
        },
        {
          "internalType": "uint256",
          "name": "tokenId",
          "type": "uint256"
        }
      ],
      "name": "transferFrom",
      "outputs": [],
      "stateMutability": "nonpayable",
      "type": "function"
    },
    {
      "inputs": [
        {
          "internalType": "address",
          "name": "newOwner",
          "type": "address"
        }
      ],
      "name": "transferOwnership",
      "outputs": [],
      "stateMutability": "nonpayable",
      "type": "function"
    },
    {
      "inputs": [
        {
          "internalType": "uint256",
          "name": "tokenId",
          "type": "uint256"
        }
      ],
      "name": "unlistCard",
      "outputs": [],
      "stateMutability": "nonpayable",
      "type": "function"
    }
  ],
  "bytecode": "0x60806040523480156200001157600080fd5b506040805180820182526009815268506f6b65506c61636560b81b602080830191825283518085019094526002845261050560f41b9084015281519192916200005d91600091620000ec565b50805162000073906001906020840190620000ec565b505050620000906200008a6200009660201b60201c565b6200009a565b620001cf565b3390565b600780546001600160a01b038381166001600160a01b0319831681179093556040519116919082907f8be0079c531659141344cd1fd0a4f28419497f9722a3daafe3b4186f6b6457e090600090a35050565b828054620000fa9062000192565b90600052602060002090601f0160209004810192826200011e576000855562000169565b82601f106200013957805160ff191683800117855562000169565b8280016001018555821562000169579182015b82811115620001695782518255916020019190600101906200014c565b50620001779291506200017b565b5090565b5b808211156200017757600081556001016200017c565b600181811c90821680620001a757607f821691505b60208210811415620001c957634e487b7160e01b600052602260045260246000fd5b50919050565b61213680620001df6000396000f3fe6080604052600436106101405760003560e01c8063715018a6116100b6578063b88d4fde1161006f578063b88d4fde1461038e578063c70f5eaa146103ae578063c87b56dd146103c1578063e985e9c5146103e1578063f1f96ac01461042a578063f2fde38b1461044a57600080fd5b8063715018a6146102e45780638da5cb5b146102f957806395d89b4114610317578063a22cb4651461032c578063a5ccfb061461034c578063b0df9e531461036c57600080fd5b8063306b0fcc11610108578063306b0fcc1461021657806342842e0e1461023657806342966c68146102565780635e1acf65146102765780636352211e1461029657806370a08231146102b657600080fd5b806301ffc9a71461014557806306fdde031461017a578063081812fc1461019c578063095ea7b3146101d457806323b872dd146101f6575b600080fd5b34801561015157600080fd5b50610165610160366004611d26565b61046a565b60405190151581526020015b60405180910390f35b34801561018657600080fd5b5061018f6104bc565b6040516101719190611ef4565b3480156101a857600080fd5b506101bc6101b7366004611db4565b61054e565b6040516001600160a01b039091168152602001610171565b3480156101e057600080fd5b506101f46101ef366004611cfd565b610575565b005b34801561020257600080fd5b506101f4610211366004611c0f565b610690565b34801561022257600080fd5b506101f4610231366004611d5e565b6106c2565b34801561024257600080fd5b506101f4610251366004611c0f565b61077a565b34801561026257600080fd5b506101f4610271366004611db4565b610795565b34801561028257600080fd5b506101f4610291366004611db4565b6107c6565b3480156102a257600080fd5b506101bc6102b1366004611db4565b6108a7565b3480156102c257600080fd5b506102d66102d1366004611bc3565b610907565b604051908152602001610171565b3480156102f057600080fd5b506101f461098d565b34801561030557600080fd5b506007546001600160a01b03166101bc565b34801561032357600080fd5b5061018f6109a1565b34801561033857600080fd5b506101f4610347366004611cc3565b6109b0565b34801561035857600080fd5b506101f4610367366004611dcc565b6109bf565b34801561037857600080fd5b50610381610a76565b6040516101719190611e85565b34801561039a57600080fd5b506101f46103a9366004611c4a565b610bd1565b6101f46103bc366004611db4565b610c03565b3480156103cd57600080fd5b5061018f6103dc366004611db4565b610dea565b3480156103ed57600080fd5b506101656103fc366004611bdd565b6001600160a01b03918216600090815260056020908152604080832093909416825291909152205460ff1690565b34801561043657600080fd5b506101f4610445366004611db4565b610df5565b34801561045657600080fd5b506101f4610465366004611bc3565b610ea5565b60006001600160e01b031982166380ac58cd60e01b148061049b57506001600160e01b03198216635b5e139f60e01b145b806104b657506301ffc9a760e01b6001600160e01b03198316145b92915050565b6060600080546104cb9061203e565b80601f01602080910402602001604051908101604052809291908181526020018280546104f79061203e565b80156105445780601f1061051957610100808354040283529160200191610544565b820191906000526020600020905b81548152906001019060200180831161052757829003601f168201915b5050505050905090565b600061055982610f1b565b506000908152600460205260409020546001600160a01b031690565b6000610580826108a7565b9050806001600160a01b0316836001600160a01b031614156105f35760405162461bcd60e51b815260206004820152602160248201527f4552433732313a20617070726f76616c20746f2063757272656e74206f776e656044820152603960f91b60648201526084015b60405180910390fd5b336001600160a01b038216148061060f575061060f81336103fc565b6106815760405162461bcd60e51b815260206004820152603e60248201527f4552433732313a20617070726f76652063616c6c6572206973206e6f7420746f60448201527f6b656e206f776e6572206e6f7220617070726f76656420666f7220616c6c000060648201526084016105ea565b61068b8383610f7a565b505050565b61069b335b82610fe8565b6106b75760405162461bcd60e51b81526004016105ea90611f81565b61068b838383611067565b670de0b6b3a764000081101561070a5760405162461bcd60e51b815260206004820152600d60248201526c707269636520746f6f206c6f7760981b60448201526064016105ea565b600061071560085490565b9050610725600880546001019055565b60008181526009602052604090208181556001810180546001600160a01b031916339081179091556002820184905560038201805460ff1916905561076a9083611203565b610774828561121d565b50505050565b61068b83838360405180602001604052806000815250610bd1565b61079e33610695565b6107ba5760405162461bcd60e51b81526004016105ea90611f81565b6107c3816112b7565b50565b60008181526009602052604090206001015481906001600160a01b031633146108015760405162461bcd60e51b81526004016105ea90611f59565b600082815260096020526040902060030154829060ff161561084f5760405162461bcd60e51b81526020600482015260076024820152666f6e2073616c6560c81b60448201526064016105ea565b6000838152600960209081526040808320838155600180820180546001600160a01b0319169055600282018590556003909101805460ff19908116909155600a90935292208054909116909117905561068b836112b7565b6000818152600260205260408120546001600160a01b0316806104b65760405162461bcd60e51b8152602060048201526018602482015277115490cdcc8c4e881a5b9d985b1a59081d1bdad95b88125160421b60448201526064016105ea565b60006001600160a01b0382166109715760405162461bcd60e51b815260206004820152602960248201527f4552433732313a2061646472657373207a65726f206973206e6f7420612076616044820152683634b21037bbb732b960b91b60648201526084016105ea565b506001600160a01b031660009081526003602052604090205490565b6109956112c0565b61099f600061131a565b565b6060600180546104cb9061203e565b6109bb33838361136c565b5050565b60008281526009602052604090206001015482906001600160a01b031633146109fa5760405162461bcd60e51b81526004016105ea90611f59565b600083815260096020526040902060030154839060ff1615610a485760405162461bcd60e51b81526020600482015260076024820152666f6e2073616c6560c81b60448201526064016105ea565b600084815260096020526040902060038101805460ff19166001179055600201839055610774333086611067565b60606000610a8360085490565b905060008167ffffffffffffffff811115610aae57634e487b7160e01b600052604160045260246000fd5b604051908082528060200260200182016040528015610b0057816020015b604080516080810182526000808252602080830182905292820181905260608201528252600019909201910181610acc5790505b5090506000805b83811015610bc8576000818152600a602052604090205460ff1615610b2b57610bb6565b60008181526009602090815260409182902082516080810184528154815260018201546001600160a01b03169281019290925260028101549282019290925260039091015460ff16151560608201528351849084908110610b9c57634e487b7160e01b600052603260045260246000fd5b60200260200101819052508180610bb290612079565b9250505b80610bc081612079565b915050610b07565b50909392505050565b610bdb3383610fe8565b610bf75760405162461bcd60e51b81526004016105ea90611f81565b6107748484848461143b565b600081815260096020526040902060030154819060ff16610c545760405162461bcd60e51b815260206004820152600b60248201526a6e6f74206f6e2073616c6560a81b60448201526064016105ea565b6000828152600960205260409020600101546001600160a01b0316331415610cb55760405162461bcd60e51b815260206004820152601460248201527363617264206f776e65722063616e27742062757960601b60448201526064016105ea565b6000828152600960205260409020600201543414610d0b5760405162461bcd60e51b8152602060048201526013602482015272416d6f756e742073656e7420746f6f206c6f7760681b60448201526064016105ea565b6000828152600960205260409020600181018054336001600160a01b0319821681179092556003909201805460ff191690556001600160a01b0390911690610d5590309085611067565b6000816001600160a01b03163460405160006040518083038185875af1925050503d8060008114610da2576040519150601f19603f3d011682016040523d82523d6000602084013e610da7565b606091505b50509050806107745760405162461bcd60e51b815260206004820152600f60248201526e151c985b9cd9995c8819985a5b1959608a1b60448201526064016105ea565b60606104b68261146e565b60008181526009602052604090206001015481906001600160a01b03163314610e305760405162461bcd60e51b81526004016105ea90611f59565b600082815260096020526040902060030154829060ff16610e815760405162461bcd60e51b815260206004820152600b60248201526a6e6f74206f6e2073616c6560a81b60448201526064016105ea565b6000838152600960205260409020600301805460ff1916905561068b303385611067565b610ead6112c0565b6001600160a01b038116610f125760405162461bcd60e51b815260206004820152602660248201527f4f776e61626c653a206e6577206f776e657220697320746865207a65726f206160448201526564647265737360d01b60648201526084016105ea565b6107c38161131a565b6000818152600260205260409020546001600160a01b03166107c35760405162461bcd60e51b8152602060048201526018602482015277115490cdcc8c4e881a5b9d985b1a59081d1bdad95b88125160421b60448201526064016105ea565b600081815260046020526040902080546001600160a01b0319166001600160a01b0384169081179091558190610faf826108a7565b6001600160a01b03167f8c5be1e5ebec7d5bd14f71427d1e84f3dd0314c0f7b2291e5b200ac8c7c3b92560405160405180910390a45050565b600080610ff4836108a7565b9050806001600160a01b0316846001600160a01b0316148061103b57506001600160a01b0380821660009081526005602090815260408083209388168352929052205460ff165b8061105f5750836001600160a01b03166110548461054e565b6001600160a01b0316145b949350505050565b826001600160a01b031661107a826108a7565b6001600160a01b0316146110de5760405162461bcd60e51b815260206004820152602560248201527f4552433732313a207472616e736665722066726f6d20696e636f72726563742060448201526437bbb732b960d91b60648201526084016105ea565b6001600160a01b0382166111405760405162461bcd60e51b8152602060048201526024808201527f4552433732313a207472616e7366657220746f20746865207a65726f206164646044820152637265737360e01b60648201526084016105ea565b61114b600082610f7a565b6001600160a01b0383166000908152600360205260408120805460019290611174908490611ffb565b90915550506001600160a01b03821660009081526003602052604081208054600192906111a2908490611fcf565b909155505060008181526002602052604080822080546001600160a01b0319166001600160a01b0386811691821790925591518493918716917fddf252ad1be2c89b69c2b068fc378daa952ba7f163c4a11628f55a4df523b3ef91a4505050565b6109bb828260405180602001604052806000815250611577565b6000828152600260205260409020546001600160a01b03166112985760405162461bcd60e51b815260206004820152602e60248201527f45524337323155524953746f726167653a2055524920736574206f66206e6f6e60448201526d32bc34b9ba32b73a103a37b5b2b760911b60648201526084016105ea565b6000828152600660209081526040909120825161068b92840190611a62565b6107c3816115aa565b6007546001600160a01b0316331461099f5760405162461bcd60e51b815260206004820181905260248201527f4f776e61626c653a2063616c6c6572206973206e6f7420746865206f776e657260448201526064016105ea565b600780546001600160a01b038381166001600160a01b0319831681179093556040519116919082907f8be0079c531659141344cd1fd0a4f28419497f9722a3daafe3b4186f6b6457e090600090a35050565b816001600160a01b0316836001600160a01b031614156113ce5760405162461bcd60e51b815260206004820152601960248201527f4552433732313a20617070726f766520746f2063616c6c65720000000000000060448201526064016105ea565b6001600160a01b03838116600081815260056020908152604080832094871680845294825291829020805460ff191686151590811790915591519182527f17307eab39ab6107e8899845ad3d59bd9653f200f220920489ca2b5937696c31910160405180910390a3505050565b611446848484611067565b611452848484846115ea565b6107745760405162461bcd60e51b81526004016105ea90611f07565b606061147982610f1b565b600082815260066020526040812080546114929061203e565b80601f01602080910402602001604051908101604052809291908181526020018280546114be9061203e565b801561150b5780601f106114e05761010080835404028352916020019161150b565b820191906000526020600020905b8154815290600101906020018083116114ee57829003601f168201915b50505050509050600061152960408051602081019091526000815290565b905080516000141561153c575092915050565b81511561156e578082604051602001611556929190611e19565b60405160208183030381529060405292505050919050565b61105f846116f7565b611581838361176b565b61158e60008484846115ea565b61068b5760405162461bcd60e51b81526004016105ea90611f07565b6115b3816118ad565b600081815260066020526040902080546115cc9061203e565b1590506107c35760008181526006602052604081206107c391611ae6565b60006001600160a01b0384163b156116ec57604051630a85bd0160e11b81526001600160a01b0385169063150b7a029061162e903390899088908890600401611e48565b602060405180830381600087803b15801561164857600080fd5b505af1925050508015611678575060408051601f3d908101601f1916820190925261167591810190611d42565b60015b6116d2573d8080156116a6576040519150601f19603f3d011682016040523d82523d6000602084013e6116ab565b606091505b5080516116ca5760405162461bcd60e51b81526004016105ea90611f07565b805181602001fd5b6001600160e01b031916630a85bd0160e11b14905061105f565b506001949350505050565b606061170282610f1b565b600061171960408051602081019091526000815290565b905060008151116117395760405180602001604052806000815250611764565b8061174384611948565b604051602001611754929190611e19565b6040516020818303038152906040525b9392505050565b6001600160a01b0382166117c15760405162461bcd60e51b815260206004820181905260248201527f4552433732313a206d696e7420746f20746865207a65726f206164647265737360448201526064016105ea565b6000818152600260205260409020546001600160a01b0316156118265760405162461bcd60e51b815260206004820152601c60248201527f4552433732313a20746f6b656e20616c7265616479206d696e7465640000000060448201526064016105ea565b6001600160a01b038216600090815260036020526040812080546001929061184f908490611fcf565b909155505060008181526002602052604080822080546001600160a01b0319166001600160a01b03861690811790915590518392907fddf252ad1be2c89b69c2b068fc378daa952ba7f163c4a11628f55a4df523b3ef908290a45050565b60006118b8826108a7565b90506118c5600083610f7a565b6001600160a01b03811660009081526003602052604081208054600192906118ee908490611ffb565b909155505060008281526002602052604080822080546001600160a01b0319169055518391906001600160a01b038416907fddf252ad1be2c89b69c2b068fc378daa952ba7f163c4a11628f55a4df523b3ef908390a45050565b60608161196c5750506040805180820190915260018152600360fc1b602082015290565b8160005b8115611996578061198081612079565b915061198f9050600a83611fe7565b9150611970565b60008167ffffffffffffffff8111156119bf57634e487b7160e01b600052604160045260246000fd5b6040519080825280601f01601f1916602001820160405280156119e9576020820181803683370190505b5090505b841561105f576119fe600183611ffb565b9150611a0b600a86612094565b611a16906030611fcf565b60f81b818381518110611a3957634e487b7160e01b600052603260045260246000fd5b60200101906001600160f81b031916908160001a905350611a5b600a86611fe7565b94506119ed565b828054611a6e9061203e565b90600052602060002090601f016020900481019282611a905760008555611ad6565b82601f10611aa957805160ff1916838001178555611ad6565b82800160010185558215611ad6579182015b82811115611ad6578251825591602001919060010190611abb565b50611ae2929150611b1c565b5090565b508054611af29061203e565b6000825580601f10611b02575050565b601f0160209004906000526020600020908101906107c391905b5b80821115611ae25760008155600101611b1d565b600067ffffffffffffffff80841115611b4c57611b4c6120d4565b604051601f8501601f19908116603f01168101908282118183101715611b7457611b746120d4565b81604052809350858152868686011115611b8d57600080fd5b858560208301376000602087830101525050509392505050565b80356001600160a01b0381168114611bbe57600080fd5b919050565b600060208284031215611bd4578081fd5b61176482611ba7565b60008060408385031215611bef578081fd5b611bf883611ba7565b9150611c0660208401611ba7565b90509250929050565b600080600060608486031215611c23578081fd5b611c2c84611ba7565b9250611c3a60208501611ba7565b9150604084013590509250925092565b60008060008060808587031215611c5f578081fd5b611c6885611ba7565b9350611c7660208601611ba7565b925060408501359150606085013567ffffffffffffffff811115611c98578182fd5b8501601f81018713611ca8578182fd5b611cb787823560208401611b31565b91505092959194509250565b60008060408385031215611cd5578182fd5b611cde83611ba7565b915060208301358015158114611cf2578182fd5b809150509250929050565b60008060408385031215611d0f578182fd5b611d1883611ba7565b946020939093013593505050565b600060208284031215611d37578081fd5b8135611764816120ea565b600060208284031215611d53578081fd5b8151611764816120ea565b60008060408385031215611d70578182fd5b823567ffffffffffffffff811115611d86578283fd5b8301601f81018513611d96578283fd5b611da585823560208401611b31565b95602094909401359450505050565b600060208284031215611dc5578081fd5b5035919050565b60008060408385031215611dde578182fd5b50508035926020909101359150565b60008151808452611e05816020860160208601612012565b601f01601f19169290920160200192915050565b60008351611e2b818460208801612012565b835190830190611e3f818360208801612012565b01949350505050565b6001600160a01b0385811682528416602082015260408101839052608060608201819052600090611e7b90830184611ded565b9695505050505050565b602080825282518282018190526000919060409081850190868401855b82811015611ee757815180518552868101516001600160a01b031687860152858101518686015260609081015115159085015260809093019290850190600101611ea2565b5091979650505050505050565b6020815260006117646020830184611ded565b60208082526032908201527f4552433732313a207472616e7366657220746f206e6f6e20455243373231526560408201527131b2b4bb32b91034b6b83632b6b2b73a32b960711b606082015260800190565b6020808252600e908201526d3737ba1031b0b9321037bbb732b960911b604082015260600190565b6020808252602e908201527f4552433732313a2063616c6c6572206973206e6f7420746f6b656e206f776e6560408201526d1c881b9bdc88185c1c1c9bdd995960921b606082015260800190565b60008219821115611fe257611fe26120a8565b500190565b600082611ff657611ff66120be565b500490565b60008282101561200d5761200d6120a8565b500390565b60005b8381101561202d578181015183820152602001612015565b838111156107745750506000910152565b600181811c9082168061205257607f821691505b6020821081141561207357634e487b7160e01b600052602260045260246000fd5b50919050565b600060001982141561208d5761208d6120a8565b5060010190565b6000826120a3576120a36120be565b500690565b634e487b7160e01b600052601160045260246000fd5b634e487b7160e01b600052601260045260246000fd5b634e487b7160e01b600052604160045260246000fd5b6001600160e01b0319811681146107c357600080fdfea264697066735822122035e890a1dc9c3bb78cdfd180b664feb28cb04c58b107bdfd9656a40fa7c18b4264736f6c63430008040033",
  "linkReferences": {},
  "deployedLinkReferences": {}
}